{
  "_format": "hh-sol-artifact-1",
  "contractName": "NFTMinter",
  "sourceName": "contracts/NFTMinter.sol",
  "abi": [
    {
      "inputs": [
        {
          "internalType": "uint256",
          "name": "_mintingFee",
          "type": "uint256"
        },
        {
          "internalType": "string",
          "name": "_name",
          "type": "string"
        },
        {
          "internalType": "string",
          "name": "_symbol",
          "type": "string"
        }
      ],
      "stateMutability": "nonpayable",
      "type": "constructor"
    },
    {
      "anonymous": false,
      "inputs": [
        {
          "indexed": true,
          "internalType": "address",
          "name": "owner",
          "type": "address"
        },
        {
          "indexed": true,
          "internalType": "address",
          "name": "approved",
          "type": "address"
        },
        {
          "indexed": true,
          "internalType": "uint256",
          "name": "tokenId",
          "type": "uint256"
        }
      ],
      "name": "Approval",
      "type": "event"
    },
    {
      "anonymous": false,
      "inputs": [
        {
          "indexed": true,
          "internalType": "address",
          "name": "owner",
          "type": "address"
        },
        {
          "indexed": true,
          "internalType": "address",
          "name": "operator",
          "type": "address"
        },
        {
          "indexed": false,
          "internalType": "bool",
          "name": "approved",
          "type": "bool"
        }
      ],
      "name": "ApprovalForAll",
      "type": "event"
    },
    {
      "anonymous": false,
      "inputs": [
        {
          "indexed": true,
          "internalType": "address",
          "name": "previousOwner",
          "type": "address"
        },
        {
          "indexed": true,
          "internalType": "address",
          "name": "newOwner",
          "type": "address"
        }
      ],
      "name": "OwnershipTransferred",
      "type": "event"
    },
    {
      "anonymous": false,
      "inputs": [
        {
          "indexed": true,
          "internalType": "address",
          "name": "from",
          "type": "address"
        },
        {
          "indexed": true,
          "internalType": "address",
          "name": "to",
          "type": "address"
        },
        {
          "indexed": true,
          "internalType": "uint256",
          "name": "tokenId",
          "type": "uint256"
        }
      ],
      "name": "Transfer",
      "type": "event"
    },
    {
      "inputs": [
        {
          "internalType": "address",
          "name": "to",
          "type": "address"
        },
        {
          "internalType": "uint256",
          "name": "tokenId",
          "type": "uint256"
        }
      ],
      "name": "approve",
      "outputs": [],
      "stateMutability": "nonpayable",
      "type": "function"
    },
    {
      "inputs": [
        {
          "internalType": "address",
          "name": "owner",
          "type": "address"
        }
      ],
      "name": "balanceOf",
      "outputs": [
        {
          "internalType": "uint256",
          "name": "",
          "type": "uint256"
        }
      ],
      "stateMutability": "view",
      "type": "function"
    },
    {
      "inputs": [],
      "name": "getAllNfts",
      "outputs": [
        {
          "components": [
            {
              "internalType": "uint256",
              "name": "id",
              "type": "uint256"
            },
            {
              "internalType": "string",
              "name": "uri",
              "type": "string"
            }
          ],
          "internalType": "struct NFTMinter.RenderNft[]",
          "name": "",
          "type": "tuple[]"
        }
      ],
      "stateMutability": "view",
      "type": "function"
    },
    {
      "inputs": [
        {
          "internalType": "uint256",
          "name": "tokenId",
          "type": "uint256"
        }
      ],
      "name": "getApproved",
      "outputs": [
        {
          "internalType": "address",
          "name": "",
          "type": "address"
        }
      ],
      "stateMutability": "view",
      "type": "function"
    },
    {
      "inputs": [],
      "name": "getMintingFee",
      "outputs": [
        {
          "internalType": "uint256",
          "name": "",
          "type": "uint256"
        }
      ],
      "stateMutability": "view",
      "type": "function"
    },
    {
      "inputs": [],
      "name": "getMyNfts",
      "outputs": [
        {
          "components": [
            {
              "internalType": "uint256",
              "name": "id",
              "type": "uint256"
            },
            {
              "internalType": "string",
              "name": "uri",
              "type": "string"
            }
          ],
          "internalType": "struct NFTMinter.RenderNft[]",
          "name": "",
          "type": "tuple[]"
        }
      ],
      "stateMutability": "view",
      "type": "function"
    },
    {
      "inputs": [
        {
          "internalType": "address",
          "name": "owner",
          "type": "address"
        },
        {
          "internalType": "address",
          "name": "operator",
          "type": "address"
        }
      ],
      "name": "isApprovedForAll",
      "outputs": [
        {
          "internalType": "bool",
          "name": "",
          "type": "bool"
        }
      ],
      "stateMutability": "view",
      "type": "function"
    },
    {
      "inputs": [
        {
          "internalType": "string",
          "name": "_tokenURI",
          "type": "string"
        }
      ],
      "name": "mintNFT",
      "outputs": [
        {
          "internalType": "uint256",
          "name": "",
          "type": "uint256"
        }
      ],
      "stateMutability": "payable",
      "type": "function"
    },
    {
      "inputs": [],
      "name": "name",
      "outputs": [
        {
          "internalType": "string",
          "name": "",
          "type": "string"
        }
      ],
      "stateMutability": "view",
      "type": "function"
    },
    {
      "inputs": [],
      "name": "owner",
      "outputs": [
        {
          "internalType": "address",
          "name": "",
          "type": "address"
        }
      ],
      "stateMutability": "view",
      "type": "function"
    },
    {
      "inputs": [
        {
          "internalType": "uint256",
          "name": "tokenId",
          "type": "uint256"
        }
      ],
      "name": "ownerOf",
      "outputs": [
        {
          "internalType": "address",
          "name": "",
          "type": "address"
        }
      ],
      "stateMutability": "view",
      "type": "function"
    },
    {
      "inputs": [],
      "name": "renounceOwnership",
      "outputs": [],
      "stateMutability": "nonpayable",
      "type": "function"
    },
    {
      "inputs": [
        {
          "internalType": "address",
          "name": "from",
          "type": "address"
        },
        {
          "internalType": "address",
          "name": "to",
          "type": "address"
        },
        {
          "internalType": "uint256",
          "name": "tokenId",
          "type": "uint256"
        }
      ],
      "name": "safeTransferFrom",
      "outputs": [],
      "stateMutability": "nonpayable",
      "type": "function"
    },
    {
      "inputs": [
        {
          "internalType": "address",
          "name": "from",
          "type": "address"
        },
        {
          "internalType": "address",
          "name": "to",
          "type": "address"
        },
        {
          "internalType": "uint256",
          "name": "tokenId",
          "type": "uint256"
        },
        {
          "internalType": "bytes",
          "name": "_data",
          "type": "bytes"
        }
      ],
      "name": "safeTransferFrom",
      "outputs": [],
      "stateMutability": "nonpayable",
      "type": "function"
    },
    {
      "inputs": [
        {
          "internalType": "address",
          "name": "operator",
          "type": "address"
        },
        {
          "internalType": "bool",
          "name": "approved",
          "type": "bool"
        }
      ],
      "name": "setApprovalForAll",
      "outputs": [],
      "stateMutability": "nonpayable",
      "type": "function"
    },
    {
      "inputs": [
        {
          "internalType": "bytes4",
          "name": "interfaceId",
          "type": "bytes4"
        }
      ],
      "name": "supportsInterface",
      "outputs": [
        {
          "internalType": "bool",
          "name": "",
          "type": "bool"
        }
      ],
      "stateMutability": "view",
      "type": "function"
    },
    {
      "inputs": [],
      "name": "symbol",
      "outputs": [
        {
          "internalType": "string",
          "name": "",
          "type": "string"
        }
      ],
      "stateMutability": "view",
      "type": "function"
    },
    {
      "inputs": [
        {
          "internalType": "uint256",
          "name": "tokenId",
          "type": "uint256"
        }
      ],
      "name": "tokenURI",
      "outputs": [
        {
          "internalType": "string",
          "name": "",
          "type": "string"
        }
      ],
      "stateMutability": "view",
      "type": "function"
    },
    {
      "inputs": [
        {
          "internalType": "address",
          "name": "from",
          "type": "address"
        },
        {
          "internalType": "address",
          "name": "to",
          "type": "address"
        },
        {
          "internalType": "uint256",
          "name": "tokenId",
          "type": "uint256"
        }
      ],
      "name": "transferFrom",
      "outputs": [],
      "stateMutability": "nonpayable",
      "type": "function"
    },
    {
      "inputs": [
        {
          "internalType": "address",
          "name": "newOwner",
          "type": "address"
        }
      ],
      "name": "transferOwnership",
      "outputs": [],
      "stateMutability": "nonpayable",
      "type": "function"
    }
  ],
  "bytecode": "0x60806040523480156200001157600080fd5b50604051620034ce380380620034ce8339818101604052810190620000379190620002a4565b81818160009080519060200190620000519291906200016b565b5080600190805190602001906200006a9291906200016b565b5050506200008d620000816200009d60201b60201c565b620000a560201b60201c565b82600881905550505050620004c0565b600033905090565b6000600760009054906101000a900473ffffffffffffffffffffffffffffffffffffffff16905081600760006101000a81548173ffffffffffffffffffffffffffffffffffffffff021916908373ffffffffffffffffffffffffffffffffffffffff1602179055508173ffffffffffffffffffffffffffffffffffffffff168173ffffffffffffffffffffffffffffffffffffffff167f8be0079c531659141344cd1fd0a4f28419497f9722a3daafe3b4186f6b6457e060405160405180910390a35050565b8280546200017990620003cb565b90600052602060002090601f0160209004810192826200019d5760008555620001e9565b82601f10620001b857805160ff1916838001178555620001e9565b82800160010185558215620001e9579182015b82811115620001e8578251825591602001919060010190620001cb565b5b509050620001f89190620001fc565b5090565b5b8082111562000217576000816000905550600101620001fd565b5090565b6000620002326200022c8462000355565b6200032c565b9050828152602081018484840111156200024b57600080fd5b6200025884828562000395565b509392505050565b600082601f8301126200027257600080fd5b8151620002848482602086016200021b565b91505092915050565b6000815190506200029e81620004a6565b92915050565b600080600060608486031215620002ba57600080fd5b6000620002ca868287016200028d565b935050602084015167ffffffffffffffff811115620002e857600080fd5b620002f68682870162000260565b925050604084015167ffffffffffffffff8111156200031457600080fd5b620003228682870162000260565b9150509250925092565b6000620003386200034b565b905062000346828262000401565b919050565b6000604051905090565b600067ffffffffffffffff82111562000373576200037262000466565b5b6200037e8262000495565b9050602081019050919050565b6000819050919050565b60005b83811015620003b557808201518184015260208101905062000398565b83811115620003c5576000848401525b50505050565b60006002820490506001821680620003e457607f821691505b60208210811415620003fb57620003fa62000437565b5b50919050565b6200040c8262000495565b810181811067ffffffffffffffff821117156200042e576200042d62000466565b5b80604052505050565b7f4e487b7100000000000000000000000000000000000000000000000000000000600052602260045260246000fd5b7f4e487b7100000000000000000000000000000000000000000000000000000000600052604160045260246000fd5b6000601f19601f8301169050919050565b620004b1816200038b565b8114620004bd57600080fd5b50565b612ffe80620004d06000396000f3fe60806040526004361061011f5760003560e01c8063732e8d73116100a0578063b88d4fde11610064578063b88d4fde146103d5578063c87b56dd146103fe578063e985e9c51461043b578063f2fde38b14610478578063fb37e883146104a15761011f565b8063732e8d73146103005780638da5cb5b1461032b57806395d89b4114610356578063a22cb46514610381578063b59d88a9146103aa5761011f565b806323b872dd116100e757806323b872dd1461021d57806342842e0e146102465780636352211e1461026f57806370a08231146102ac578063715018a6146102e95761011f565b806301ffc9a714610124578063047b07bf1461016157806306fdde031461018c578063081812fc146101b7578063095ea7b3146101f4575b600080fd5b34801561013057600080fd5b5061014b6004803603810190610146919061202d565b6104d1565b604051610158919061254f565b60405180910390f35b34801561016d57600080fd5b506101766105b3565b604051610183919061252d565b60405180910390f35b34801561019857600080fd5b506101a161072a565b6040516101ae919061256a565b60405180910390f35b3480156101c357600080fd5b506101de60048036038101906101d991906120c0565b6107bc565b6040516101eb91906124c6565b60405180910390f35b34801561020057600080fd5b5061021b60048036038101906102169190611ff1565b610841565b005b34801561022957600080fd5b50610244600480360381019061023f9190611eeb565b610959565b005b34801561025257600080fd5b5061026d60048036038101906102689190611eeb565b6109b9565b005b34801561027b57600080fd5b50610296600480360381019061029191906120c0565b6109d9565b6040516102a391906124c6565b60405180910390f35b3480156102b857600080fd5b506102d360048036038101906102ce9190611e86565b610a8b565b6040516102e0919061278c565b60405180910390f35b3480156102f557600080fd5b506102fe610b43565b005b34801561030c57600080fd5b50610315610bcb565b604051610322919061252d565b60405180910390f35b34801561033757600080fd5b50610340610ce7565b60405161034d91906124c6565b60405180910390f35b34801561036257600080fd5b5061036b610d11565b604051610378919061256a565b60405180910390f35b34801561038d57600080fd5b506103a860048036038101906103a39190611fb5565b610da3565b005b3480156103b657600080fd5b506103bf610db9565b6040516103cc919061278c565b60405180910390f35b3480156103e157600080fd5b506103fc60048036038101906103f79190611f3a565b610dc3565b005b34801561040a57600080fd5b50610425600480360381019061042091906120c0565b610e25565b604051610432919061256a565b60405180910390f35b34801561044757600080fd5b50610462600480360381019061045d9190611eaf565b610ee2565b60405161046f919061254f565b60405180910390f35b34801561048457600080fd5b5061049f600480360381019061049a9190611e86565b610f76565b005b6104bb60048036038101906104b6919061207f565b61106e565b6040516104c8919061278c565b60405180910390f35b60007f80ac58cd000000000000000000000000000000000000000000000000000000007bffffffffffffffffffffffffffffffffffffffffffffffffffffffff1916827bffffffffffffffffffffffffffffffffffffffffffffffffffffffff1916148061059c57507f5b5e139f000000000000000000000000000000000000000000000000000000007bffffffffffffffffffffffffffffffffffffffffffffffffffffffff1916827bffffffffffffffffffffffffffffffffffffffffffffffffffffffff1916145b806105ac57506105ab82611137565b5b9050919050565b606060006105c160096111a1565b905060006105ce33610a8b565b905060008167ffffffffffffffff811115610612577f4e487b7100000000000000000000000000000000000000000000000000000000600052604160045260246000fd5b60405190808252806020026020018201604052801561064b57816020015b610638611c90565b8152602001906001900390816106305790505b5090506000805b8481101561071f573373ffffffffffffffffffffffffffffffffffffffff1661067a826109d9565b73ffffffffffffffffffffffffffffffffffffffff16141561070c5760006106a182610e25565b90506040518060400160405280838152602001828152508484815181106106f1577f4e487b7100000000000000000000000000000000000000000000000000000000600052603260045260246000fd5b6020026020010181905250828061070790612a53565b935050505b808061071790612a53565b915050610652565b508194505050505090565b606060008054610739906129f0565b80601f0160208091040260200160405190810160405280929190818152602001828054610765906129f0565b80156107b25780601f10610787576101008083540402835291602001916107b2565b820191906000526020600020905b81548152906001019060200180831161079557829003601f168201915b5050505050905090565b60006107c7826111af565b610806576040517f08c379a00000000000000000000000000000000000000000000000000000000081526004016107fd9061270c565b60405180910390fd5b6004600083815260200190815260200160002060009054906101000a900473ffffffffffffffffffffffffffffffffffffffff169050919050565b600061084c826109d9565b90508073ffffffffffffffffffffffffffffffffffffffff168373ffffffffffffffffffffffffffffffffffffffff1614156108bd576040517f08c379a00000000000000000000000000000000000000000000000000000000081526004016108b49061274c565b60405180910390fd5b8073ffffffffffffffffffffffffffffffffffffffff166108dc61121b565b73ffffffffffffffffffffffffffffffffffffffff16148061090b575061090a8161090561121b565b610ee2565b5b61094a576040517f08c379a00000000000000000000000000000000000000000000000000000000081526004016109419061268c565b60405180910390fd5b6109548383611223565b505050565b61096a61096461121b565b826112dc565b6109a9576040517f08c379a00000000000000000000000000000000000000000000000000000000081526004016109a09061276c565b60405180910390fd5b6109b48383836113ba565b505050565b6109d483838360405180602001604052806000815250610dc3565b505050565b6000806002600084815260200190815260200160002060009054906101000a900473ffffffffffffffffffffffffffffffffffffffff169050600073ffffffffffffffffffffffffffffffffffffffff168173ffffffffffffffffffffffffffffffffffffffff161415610a82576040517f08c379a0000000000000000000000000000000000000000000000000000000008152600401610a79906126cc565b60405180910390fd5b80915050919050565b60008073ffffffffffffffffffffffffffffffffffffffff168273ffffffffffffffffffffffffffffffffffffffff161415610afc576040517f08c379a0000000000000000000000000000000000000000000000000000000008152600401610af3906126ac565b60405180910390fd5b600360008373ffffffffffffffffffffffffffffffffffffffff1673ffffffffffffffffffffffffffffffffffffffff168152602001908152602001600020549050919050565b610b4b61121b565b73ffffffffffffffffffffffffffffffffffffffff16610b69610ce7565b73ffffffffffffffffffffffffffffffffffffffff1614610bbf576040517f08c379a0000000000000000000000000000000000000000000000000000000008152600401610bb69061272c565b60405180910390fd5b610bc96000611621565b565b60606000610bd960096111a1565b905060008167ffffffffffffffff811115610c1d577f4e487b7100000000000000000000000000000000000000000000000000000000600052604160045260246000fd5b604051908082528060200260200182016040528015610c5657816020015b610c43611c90565b815260200190600190039081610c3b5790505b50905060005b82811015610cde576000610c6f82610e25565b9050604051806040016040528083815260200182815250838381518110610cbf577f4e487b7100000000000000000000000000000000000000000000000000000000600052603260045260246000fd5b6020026020010181905250508080610cd690612a53565b915050610c5c565b50809250505090565b6000600760009054906101000a900473ffffffffffffffffffffffffffffffffffffffff16905090565b606060018054610d20906129f0565b80601f0160208091040260200160405190810160405280929190818152602001828054610d4c906129f0565b8015610d995780601f10610d6e57610100808354040283529160200191610d99565b820191906000526020600020905b815481529060010190602001808311610d7c57829003601f168201915b5050505050905090565b610db5610dae61121b565b83836116e7565b5050565b6000600854905090565b610dd4610dce61121b565b836112dc565b610e13576040517f08c379a0000000000000000000000000000000000000000000000000000000008152600401610e0a9061276c565b60405180910390fd5b610e1f84848484611854565b50505050565b6060610e30826111af565b610e3957600080fd5b6000600a60008481526020019081526020016000208054610e59906129f0565b80601f0160208091040260200160405190810160405280929190818152602001828054610e85906129f0565b8015610ed25780601f10610ea757610100808354040283529160200191610ed2565b820191906000526020600020905b815481529060010190602001808311610eb557829003601f168201915b5050505050905080915050919050565b6000600560008473ffffffffffffffffffffffffffffffffffffffff1673ffffffffffffffffffffffffffffffffffffffff16815260200190815260200160002060008373ffffffffffffffffffffffffffffffffffffffff1673ffffffffffffffffffffffffffffffffffffffff16815260200190815260200160002060009054906101000a900460ff16905092915050565b610f7e61121b565b73ffffffffffffffffffffffffffffffffffffffff16610f9c610ce7565b73ffffffffffffffffffffffffffffffffffffffff1614610ff2576040517f08c379a0000000000000000000000000000000000000000000000000000000008152600401610fe99061272c565b60405180910390fd5b600073ffffffffffffffffffffffffffffffffffffffff168173ffffffffffffffffffffffffffffffffffffffff161415611062576040517f08c379a0000000000000000000000000000000000000000000000000000000008152600401611059906125ac565b60405180910390fd5b61106b81611621565b50565b600060085434146110b4576040517f08c379a00000000000000000000000000000000000000000000000000000000081526004016110ab9061266c565b60405180910390fd5b60006110c060096111a1565b90506110cc33826118b0565b6110d68184611a8a565b6110de610ce7565b73ffffffffffffffffffffffffffffffffffffffff166108fc349081150290604051600060405180830381858888f19350505050158015611123573d6000803e3d6000fd5b5061112e6009611ab6565b80915050919050565b60007f01ffc9a7000000000000000000000000000000000000000000000000000000007bffffffffffffffffffffffffffffffffffffffffffffffffffffffff1916827bffffffffffffffffffffffffffffffffffffffffffffffffffffffff1916149050919050565b600081600001549050919050565b60008073ffffffffffffffffffffffffffffffffffffffff166002600084815260200190815260200160002060009054906101000a900473ffffffffffffffffffffffffffffffffffffffff1673ffffffffffffffffffffffffffffffffffffffff1614159050919050565b600033905090565b816004600083815260200190815260200160002060006101000a81548173ffffffffffffffffffffffffffffffffffffffff021916908373ffffffffffffffffffffffffffffffffffffffff160217905550808273ffffffffffffffffffffffffffffffffffffffff16611296836109d9565b73ffffffffffffffffffffffffffffffffffffffff167f8c5be1e5ebec7d5bd14f71427d1e84f3dd0314c0f7b2291e5b200ac8c7c3b92560405160405180910390a45050565b60006112e7826111af565b611326576040517f08c379a000000000000000000000000000000000000000000000000000000000815260040161131d9061264c565b60405180910390fd5b6000611331836109d9565b90508073ffffffffffffffffffffffffffffffffffffffff168473ffffffffffffffffffffffffffffffffffffffff16148061137357506113728185610ee2565b5b806113b157508373ffffffffffffffffffffffffffffffffffffffff16611399846107bc565b73ffffffffffffffffffffffffffffffffffffffff16145b91505092915050565b8273ffffffffffffffffffffffffffffffffffffffff166113da826109d9565b73ffffffffffffffffffffffffffffffffffffffff1614611430576040517f08c379a0000000000000000000000000000000000000000000000000000000008152600401611427906125cc565b60405180910390fd5b600073ffffffffffffffffffffffffffffffffffffffff168273ffffffffffffffffffffffffffffffffffffffff1614156114a0576040517f08c379a00000000000000000000000000000000000000000000000000000000081526004016114979061260c565b60405180910390fd5b6114ab838383611acc565b6114b6600082611223565b6001600360008573ffffffffffffffffffffffffffffffffffffffff1673ffffffffffffffffffffffffffffffffffffffff16815260200190815260200160002060008282546115069190612906565b925050819055506001600360008473ffffffffffffffffffffffffffffffffffffffff1673ffffffffffffffffffffffffffffffffffffffff168152602001908152602001600020600082825461155d91906128b0565b92505081905550816002600083815260200190815260200160002060006101000a81548173ffffffffffffffffffffffffffffffffffffffff021916908373ffffffffffffffffffffffffffffffffffffffff160217905550808273ffffffffffffffffffffffffffffffffffffffff168473ffffffffffffffffffffffffffffffffffffffff167fddf252ad1be2c89b69c2b068fc378daa952ba7f163c4a11628f55a4df523b3ef60405160405180910390a461161c838383611ad1565b505050565b6000600760009054906101000a900473ffffffffffffffffffffffffffffffffffffffff16905081600760006101000a81548173ffffffffffffffffffffffffffffffffffffffff021916908373ffffffffffffffffffffffffffffffffffffffff1602179055508173ffffffffffffffffffffffffffffffffffffffff168173ffffffffffffffffffffffffffffffffffffffff167f8be0079c531659141344cd1fd0a4f28419497f9722a3daafe3b4186f6b6457e060405160405180910390a35050565b8173ffffffffffffffffffffffffffffffffffffffff168373ffffffffffffffffffffffffffffffffffffffff161415611756576040517f08c379a000000000000000000000000000000000000000000000000000000000815260040161174d9061262c565b60405180910390fd5b80600560008573ffffffffffffffffffffffffffffffffffffffff1673ffffffffffffffffffffffffffffffffffffffff16815260200190815260200160002060008473ffffffffffffffffffffffffffffffffffffffff1673ffffffffffffffffffffffffffffffffffffffff16815260200190815260200160002060006101000a81548160ff0219169083151502179055508173ffffffffffffffffffffffffffffffffffffffff168373ffffffffffffffffffffffffffffffffffffffff167f17307eab39ab6107e8899845ad3d59bd9653f200f220920489ca2b5937696c3183604051611847919061254f565b60405180910390a3505050565b61185f8484846113ba565b61186b84848484611ad6565b6118aa576040517f08c379a00000000000000000000000000000000000000000000000000000000081526004016118a19061258c565b60405180910390fd5b50505050565b600073ffffffffffffffffffffffffffffffffffffffff168273ffffffffffffffffffffffffffffffffffffffff161415611920576040517f08c379a0000000000000000000000000000000000000000000000000000000008152600401611917906126ec565b60405180910390fd5b611929816111af565b15611969576040517f08c379a0000000000000000000000000000000000000000000000000000000008152600401611960906125ec565b60405180910390fd5b61197560008383611acc565b6001600360008473ffffffffffffffffffffffffffffffffffffffff1673ffffffffffffffffffffffffffffffffffffffff16815260200190815260200160002060008282546119c591906128b0565b92505081905550816002600083815260200190815260200160002060006101000a81548173ffffffffffffffffffffffffffffffffffffffff021916908373ffffffffffffffffffffffffffffffffffffffff160217905550808273ffffffffffffffffffffffffffffffffffffffff16600073ffffffffffffffffffffffffffffffffffffffff167fddf252ad1be2c89b69c2b068fc378daa952ba7f163c4a11628f55a4df523b3ef60405160405180910390a4611a8660008383611ad1565b5050565b80600a60008481526020019081526020016000209080519060200190611ab1929190611caa565b505050565b6001816000016000828254019250508190555050565b505050565b505050565b6000611af78473ffffffffffffffffffffffffffffffffffffffff16611c6d565b15611c60578373ffffffffffffffffffffffffffffffffffffffff1663150b7a02611b2061121b565b8786866040518563ffffffff1660e01b8152600401611b4294939291906124e1565b602060405180830381600087803b158015611b5c57600080fd5b505af1925050508015611b8d57506040513d601f19601f82011682018060405250810190611b8a9190612056565b60015b611c10573d8060008114611bbd576040519150601f19603f3d011682016040523d82523d6000602084013e611bc2565b606091505b50600081511415611c08576040517f08c379a0000000000000000000000000000000000000000000000000000000008152600401611bff9061258c565b60405180910390fd5b805181602001fd5b63150b7a0260e01b7bffffffffffffffffffffffffffffffffffffffffffffffffffffffff1916817bffffffffffffffffffffffffffffffffffffffffffffffffffffffff191614915050611c65565b600190505b949350505050565b6000808273ffffffffffffffffffffffffffffffffffffffff163b119050919050565b604051806040016040528060008152602001606081525090565b828054611cb6906129f0565b90600052602060002090601f016020900481019282611cd85760008555611d1f565b82601f10611cf157805160ff1916838001178555611d1f565b82800160010185558215611d1f579182015b82811115611d1e578251825591602001919060010190611d03565b5b509050611d2c9190611d30565b5090565b5b80821115611d49576000816000905550600101611d31565b5090565b6000611d60611d5b846127cc565b6127a7565b905082815260208101848484011115611d7857600080fd5b611d838482856129ae565b509392505050565b6000611d9e611d99846127fd565b6127a7565b905082815260208101848484011115611db657600080fd5b611dc18482856129ae565b509392505050565b600081359050611dd881612f6c565b92915050565b600081359050611ded81612f83565b92915050565b600081359050611e0281612f9a565b92915050565b600081519050611e1781612f9a565b92915050565b600082601f830112611e2e57600080fd5b8135611e3e848260208601611d4d565b91505092915050565b600082601f830112611e5857600080fd5b8135611e68848260208601611d8b565b91505092915050565b600081359050611e8081612fb1565b92915050565b600060208284031215611e9857600080fd5b6000611ea684828501611dc9565b91505092915050565b60008060408385031215611ec257600080fd5b6000611ed085828601611dc9565b9250506020611ee185828601611dc9565b9150509250929050565b600080600060608486031215611f0057600080fd5b6000611f0e86828701611dc9565b9350506020611f1f86828701611dc9565b9250506040611f3086828701611e71565b9150509250925092565b60008060008060808587031215611f5057600080fd5b6000611f5e87828801611dc9565b9450506020611f6f87828801611dc9565b9350506040611f8087828801611e71565b925050606085013567ffffffffffffffff811115611f9d57600080fd5b611fa987828801611e1d565b91505092959194509250565b60008060408385031215611fc857600080fd5b6000611fd685828601611dc9565b9250506020611fe785828601611dde565b9150509250929050565b6000806040838503121561200457600080fd5b600061201285828601611dc9565b925050602061202385828601611e71565b9150509250929050565b60006020828403121561203f57600080fd5b600061204d84828501611df3565b91505092915050565b60006020828403121561206857600080fd5b600061207684828501611e08565b91505092915050565b60006020828403121561209157600080fd5b600082013567ffffffffffffffff8111156120ab57600080fd5b6120b784828501611e47565b91505092915050565b6000602082840312156120d257600080fd5b60006120e084828501611e71565b91505092915050565b60006120f5838361246b565b905092915050565b6121068161293a565b82525050565b60006121178261283e565b612121818561286c565b9350836020820285016121338561282e565b8060005b8581101561216f578484038952815161215085826120e9565b945061215b8361285f565b925060208a01995050600181019050612137565b50829750879550505050505092915050565b61218a8161294c565b82525050565b600061219b82612849565b6121a5818561287d565b93506121b58185602086016129bd565b6121be81612b29565b840191505092915050565b60006121d482612854565b6121de818561288e565b93506121ee8185602086016129bd565b6121f781612b29565b840191505092915050565b600061220d82612854565b612217818561289f565b93506122278185602086016129bd565b61223081612b29565b840191505092915050565b600061224860328361289f565b915061225382612b3a565b604082019050919050565b600061226b60268361289f565b915061227682612b89565b604082019050919050565b600061228e60258361289f565b915061229982612bd8565b604082019050919050565b60006122b1601c8361289f565b91506122bc82612c27565b602082019050919050565b60006122d460248361289f565b91506122df82612c50565b604082019050919050565b60006122f760198361289f565b915061230282612c9f565b602082019050919050565b600061231a602c8361289f565b915061232582612cc8565b604082019050919050565b600061233d60148361289f565b915061234882612d17565b602082019050919050565b600061236060388361289f565b915061236b82612d40565b604082019050919050565b6000612383602a8361289f565b915061238e82612d8f565b604082019050919050565b60006123a660298361289f565b91506123b182612dde565b604082019050919050565b60006123c960208361289f565b91506123d482612e2d565b602082019050919050565b60006123ec602c8361289f565b91506123f782612e56565b604082019050919050565b600061240f60208361289f565b915061241a82612ea5565b602082019050919050565b600061243260218361289f565b915061243d82612ece565b604082019050919050565b600061245560318361289f565b915061246082612f1d565b604082019050919050565b600060408301600083015161248360008601826124a8565b506020830151848203602086015261249b82826121c9565b9150508091505092915050565b6124b1816129a4565b82525050565b6124c0816129a4565b82525050565b60006020820190506124db60008301846120fd565b92915050565b60006080820190506124f660008301876120fd565b61250360208301866120fd565b61251060408301856124b7565b81810360608301526125228184612190565b905095945050505050565b60006020820190508181036000830152612547818461210c565b905092915050565b60006020820190506125646000830184612181565b92915050565b600060208201905081810360008301526125848184612202565b905092915050565b600060208201905081810360008301526125a58161223b565b9050919050565b600060208201905081810360008301526125c58161225e565b9050919050565b600060208201905081810360008301526125e581612281565b9050919050565b60006020820190508181036000830152612605816122a4565b9050919050565b60006020820190508181036000830152612625816122c7565b9050919050565b60006020820190508181036000830152612645816122ea565b9050919050565b600060208201905081810360008301526126658161230d565b9050919050565b6000602082019050818103600083015261268581612330565b9050919050565b600060208201905081810360008301526126a581612353565b9050919050565b600060208201905081810360008301526126c581612376565b9050919050565b600060208201905081810360008301526126e581612399565b9050919050565b60006020820190508181036000830152612705816123bc565b9050919050565b60006020820190508181036000830152612725816123df565b9050919050565b6000602082019050818103600083015261274581612402565b9050919050565b6000602082019050818103600083015261276581612425565b9050919050565b6000602082019050818103600083015261278581612448565b9050919050565b60006020820190506127a160008301846124b7565b92915050565b60006127b16127c2565b90506127bd8282612a22565b919050565b6000604051905090565b600067ffffffffffffffff8211156127e7576127e6612afa565b5b6127f082612b29565b9050602081019050919050565b600067ffffffffffffffff82111561281857612817612afa565b5b61282182612b29565b9050602081019050919050565b6000819050602082019050919050565b600081519050919050565b600081519050919050565b600081519050919050565b6000602082019050919050565b600082825260208201905092915050565b600082825260208201905092915050565b600082825260208201905092915050565b600082825260208201905092915050565b60006128bb826129a4565b91506128c6836129a4565b9250827fffffffffffffffffffffffffffffffffffffffffffffffffffffffffffffffff038211156128fb576128fa612a9c565b5b828201905092915050565b6000612911826129a4565b915061291c836129a4565b92508282101561292f5761292e612a9c565b5b828203905092915050565b600061294582612984565b9050919050565b60008115159050919050565b60007fffffffff0000000000000000000000000000000000000000000000000000000082169050919050565b600073ffffffffffffffffffffffffffffffffffffffff82169050919050565b6000819050919050565b82818337600083830152505050565b60005b838110156129db5780820151818401526020810190506129c0565b838111156129ea576000848401525b50505050565b60006002820490506001821680612a0857607f821691505b60208210811415612a1c57612a1b612acb565b5b50919050565b612a2b82612b29565b810181811067ffffffffffffffff82111715612a4a57612a49612afa565b5b80604052505050565b6000612a5e826129a4565b91507fffffffffffffffffffffffffffffffffffffffffffffffffffffffffffffffff821415612a9157612a90612a9c565b5b600182019050919050565b7f4e487b7100000000000000000000000000000000000000000000000000000000600052601160045260246000fd5b7f4e487b7100000000000000000000000000000000000000000000000000000000600052602260045260246000fd5b7f4e487b7100000000000000000000000000000000000000000000000000000000600052604160045260246000fd5b6000601f19601f8301169050919050565b7f4552433732313a207472616e7366657220746f206e6f6e20455243373231526560008201527f63656976657220696d706c656d656e7465720000000000000000000000000000602082015250565b7f4f776e61626c653a206e6577206f776e657220697320746865207a65726f206160008201527f6464726573730000000000000000000000000000000000000000000000000000602082015250565b7f4552433732313a207472616e736665722066726f6d20696e636f72726563742060008201527f6f776e6572000000000000000000000000000000000000000000000000000000602082015250565b7f4552433732313a20746f6b656e20616c7265616479206d696e74656400000000600082015250565b7f4552433732313a207472616e7366657220746f20746865207a65726f2061646460008201527f7265737300000000000000000000000000000000000000000000000000000000602082015250565b7f4552433732313a20617070726f766520746f2063616c6c657200000000000000600082015250565b7f4552433732313a206f70657261746f7220717565727920666f72206e6f6e657860008201527f697374656e7420746f6b656e0000000000000000000000000000000000000000602082015250565b7f6d75737420706179206d696e74696e6720666565000000000000000000000000600082015250565b7f4552433732313a20617070726f76652063616c6c6572206973206e6f74206f7760008201527f6e6572206e6f7220617070726f76656420666f7220616c6c0000000000000000602082015250565b7f4552433732313a2062616c616e636520717565727920666f7220746865207a6560008201527f726f206164647265737300000000000000000000000000000000000000000000602082015250565b7f4552433732313a206f776e657220717565727920666f72206e6f6e657869737460008201527f656e7420746f6b656e0000000000000000000000000000000000000000000000602082015250565b7f4552433732313a206d696e7420746f20746865207a65726f2061646472657373600082015250565b7f4552433732313a20617070726f76656420717565727920666f72206e6f6e657860008201527f697374656e7420746f6b656e0000000000000000000000000000000000000000602082015250565b7f4f776e61626c653a2063616c6c6572206973206e6f7420746865206f776e6572600082015250565b7f4552433732313a20617070726f76616c20746f2063757272656e74206f776e6560008201527f7200000000000000000000000000000000000000000000000000000000000000602082015250565b7f4552433732313a207472616e736665722063616c6c6572206973206e6f74206f60008201527f776e6572206e6f7220617070726f766564000000000000000000000000000000602082015250565b612f758161293a565b8114612f8057600080fd5b50565b612f8c8161294c565b8114612f9757600080fd5b50565b612fa381612958565b8114612fae57600080fd5b50565b612fba816129a4565b8114612fc557600080fd5b5056fea26469706673582212206dada44ebee3f3cb6272321d394c9335e83916012fc01d4b474b4da0b7b1339564736f6c63430008040033",
  "linkReferences": {},
  "deployedLinkReferences": {}
}